{
  "transactions": [
    {
      "hash": "0x98734502ee204c1e8c6c10e8c0df12c0b0bdd5f4ad9f40a658574b00ead96b18",
      "transactionType": "CALL",
      "contractName": "ZapFrom",
      "contractAddress": "0x48f1C87b378f920D8b35F609760368E044F27172",
      "function": "bridge(uint256,address,uint16,uint16,bytes)",
      "arguments": [
        "5000000000000000",
        "0x0000000000000000000000000000000000000000",
        "13",
        "13",
        "0x0000000000000000000000002d244ed7d17ae47886f7f13f53e74b6b0bc16fdc0000000000000000000000000000000000000000000000000000000064a20f800000000000000000000000007bb5ee84ba30a8d4cff259073fbacc6b702bce9d"
      ],
      "transaction": {
        "type": "0x02",
        "from": "0x2d244ed7d17ae47886f7f13f53e74b6b0bc16fdc",
        "to": "0x48f1c87b378f920d8b35f609760368e044f27172",
        "gas": "0x8a76c",
        "value": "0x2386f26fc10000",
        "data": "0xa3b146960000000000000000000000000000000000000000000000000011c37937e080000000000000000000000000000000000000000000000000000000000000000000000000000000000000000000000000000000000000000000000000000000000d000000000000000000000000000000000000000000000000000000000000000d00000000000000000000000000000000000000000000000000000000000000a000000000000000000000000000000000000000000000000000000000000000600000000000000000000000002d244ed7d17ae47886f7f13f53e74b6b0bc16fdc0000000000000000000000000000000000000000000000000000000064a20f800000000000000000000000007bb5ee84ba30a8d4cff259073fbacc6b702bce9d",
        "nonce": "0x1",
        "accessList": []
      },
      "additionalContracts": [],
      "isFixedGasLimit": false
    }
  ],
  "receipts": [],
  "libraries": [],
  "pending": [
    "0x98734502ee204c1e8c6c10e8c0df12c0b0bdd5f4ad9f40a658574b00ead96b18"
  ],
  "returns": {},
  "timestamp": 1687857592,
  "chain": 1,
  "multi": false,
  "commit": "32bb027"
}