{
  "transactions": [
    {
      "hash": "0x98734502ee204c1e8c6c10e8c0df12c0b0bdd5f4ad9f40a658574b00ead96b18",
      "transactionType": "CALL",
      "contractName": "ZapFrom",
      "contractAddress": "0x48f1C87b378f920D8b35F609760368E044F27172",
      "function": "bridge(uint256,address,uint16,uint16,bytes)",
      "arguments": [
        "5000000000000000",
        "0x0000000000000000000000000000000000000000",
        "13",
        "13",
        "0x0000000000000000000000002d244ed7d17ae47886f7f13f53e74b6b0bc16fdc0000000000000000000000000000000000000000000000000000000064a20f800000000000000000000000007bb5ee84ba30a8d4cff259073fbacc6b702bce9d"
      ],
      "transaction": {
        "type": "0x02",
        "from": "0x2d244ed7d17ae47886f7f13f53e74b6b0bc16fdc",
        "to": "0x48f1c87b378f920d8b35f609760368e044f27172",
        "gas": "0x8a76c",
        "value": "0x2386f26fc10000",
        "data": "0xa3b146960000000000000000000000000000000000000000000000000011c37937e080000000000000000000000000000000000000000000000000000000000000000000000000000000000000000000000000000000000000000000000000000000000d000000000000000000000000000000000000000000000000000000000000000d00000000000000000000000000000000000000000000000000000000000000a000000000000000000000000000000000000000000000000000000000000000600000000000000000000000002d244ed7d17ae47886f7f13f53e74b6b0bc16fdc0000000000000000000000000000000000000000000000000000000064a20f800000000000000000000000007bb5ee84ba30a8d4cff259073fbacc6b702bce9d",
        "nonce": "0x1",
        "accessList": []
      },
      "additionalContracts": [],
      "isFixedGasLimit": false
    }
  ],
  "receipts": [
    {
      "transactionHash": "0x98734502ee204c1e8c6c10e8c0df12c0b0bdd5f4ad9f40a658574b00ead96b18",
      "transactionIndex": "0xb",
      "blockHash": "0x68dd845872d8d37218c0b046a809d43f8fecc9cb403c220cc7e6c8710f42e8f2",
      "blockNumber": "0x10c17f1",
      "from": "0x2d244ed7d17AE47886f7f13F53e74b6B0bC16fdC",
      "to": "0x48f1C87b378f920D8b35F609760368E044F27172",
      "cumulativeGasUsed": "0x11b973",
      "gasUsed": "0x643ee",
      "contractAddress": null,
      "logs": [
        {
          "address": "0x72E2F4830b9E45d52F80aC08CB2bEC0FeF72eD9c",
          "topics": [
            "0xe1fffcc4923d04b559f4d29a8bfc6cda04eb5b0d3c460751c2402c5c5cc9109c",
            "0x000000000000000000000000b1b2eef380f21747944f46d28f683cd1fbb4d03c"
          ],
          "data": "0x0000000000000000000000000000000000000000000000000011c37937e08000",
          "blockHash": "0x68dd845872d8d37218c0b046a809d43f8fecc9cb403c220cc7e6c8710f42e8f2",
          "blockNumber": "0x10c17f1",
          "transactionHash": "0x98734502ee204c1e8c6c10e8c0df12c0b0bdd5f4ad9f40a658574b00ead96b18",
          "transactionIndex": "0xb",
          "logIndex": "0x16",
          "removed": false
        },
        {
          "address": "0x72E2F4830b9E45d52F80aC08CB2bEC0FeF72eD9c",
          "topics": [
            "0x8c5be1e5ebec7d5bd14f71427d1e84f3dd0314c0f7b2291e5b200ac8c7c3b925",
            "0x000000000000000000000000b1b2eef380f21747944f46d28f683cd1fbb4d03c",
            "0x0000000000000000000000008731d54e9d02c286767d56ac03e8037c07e01e98"
          ],
          "data": "0x0000000000000000000000000000000000000000000000000011c37937e08000",
          "blockHash": "0x68dd845872d8d37218c0b046a809d43f8fecc9cb403c220cc7e6c8710f42e8f2",
          "blockNumber": "0x10c17f1",
          "transactionHash": "0x98734502ee204c1e8c6c10e8c0df12c0b0bdd5f4ad9f40a658574b00ead96b18",
          "transactionIndex": "0xb",
          "logIndex": "0x17",
          "removed": false
        },
        {
          "address": "0x101816545F6bd2b1076434B54383a1E633390A2E",
          "topics": [
            "0x34660fc8af304464529f48a778e03d03e4d34bcd5f9b6f0cfbf3cd238c642f7f"
          ],
          "data": "0x000000000000000000000000000000000000000000000000000000000000006e000000000000000000000000000000000000000000000000000000000000000d000000000000000000000000b1b2eef380f21747944f46d28f683cd1fbb4d03c0000000000000000000000000000000000000000000000000011c0beb9f15000000000000000000000000000000000000000000000000000000000000000000000000000000000000000000000000000000000000000000000000022ecb25c0000000000000000000000000000000000000000000000000000000297913cd4000000000000000000000000000000000000000000000000000000000000000000",
          "blockHash": "0x68dd845872d8d37218c0b046a809d43f8fecc9cb403c220cc7e6c8710f42e8f2",
          "blockNumber": "0x10c17f1",
          "transactionHash": "0x98734502ee204c1e8c6c10e8c0df12c0b0bdd5f4ad9f40a658574b00ead96b18",
          "transactionIndex": "0xb",
          "logIndex": "0x18",
          "removed": false
        },
        {
          "address": "0x72E2F4830b9E45d52F80aC08CB2bEC0FeF72eD9c",
          "topics": [
            "0xddf252ad1be2c89b69c2b068fc378daa952ba7f163c4a11628f55a4df523b3ef",
            "0x000000000000000000000000b1b2eef380f21747944f46d28f683cd1fbb4d03c",
            "0x000000000000000000000000101816545f6bd2b1076434b54383a1e633390a2e"
          ],
          "data": "0x0000000000000000000000000000000000000000000000000011c37937e08000",
          "blockHash": "0x68dd845872d8d37218c0b046a809d43f8fecc9cb403c220cc7e6c8710f42e8f2",
          "blockNumber": "0x10c17f1",
          "transactionHash": "0x98734502ee204c1e8c6c10e8c0df12c0b0bdd5f4ad9f40a658574b00ead96b18",
          "transactionIndex": "0xb",
          "logIndex": "0x19",
          "removed": false
        },
        {
          "address": "0x101816545F6bd2b1076434B54383a1E633390A2E",
          "topics": [
            "0x6939f93e3f21cf1362eb17155b740277de5687dae9a83a85909fd71da95944e7"
          ],
          "data": "0x000000000000000000000000000000000000000000000000000000000000006e000000000000000000000000000000000000000000000000000000000000000d000000000000000000000000000000000000000000000000000000000000000000000000000000000000000000000000000000000000007fc43a430f84e2c749",
          "blockHash": "0x68dd845872d8d37218c0b046a809d43f8fecc9cb403c220cc7e6c8710f42e8f2",
          "blockNumber": "0x10c17f1",
          "transactionHash": "0x98734502ee204c1e8c6c10e8c0df12c0b0bdd5f4ad9f40a658574b00ead96b18",
          "transactionIndex": "0xb",
          "logIndex": "0x1a",
          "removed": false
        },
        {
          "address": "0x902F09715B6303d4173037652FA7377e5b98089E",
          "topics": [
            "0xdf21c415b78ed2552cc9971249e32a053abce6087a0ae0fbf3f78db5174a3493"
          ],
          "data": "0x00000000000000000000000000000000000000000000000000022714fb422ee7",
          "blockHash": "0x68dd845872d8d37218c0b046a809d43f8fecc9cb403c220cc7e6c8710f42e8f2",
          "blockNumber": "0x10c17f1",
          "transactionHash": "0x98734502ee204c1e8c6c10e8c0df12c0b0bdd5f4ad9f40a658574b00ead96b18",
          "transactionIndex": "0xb",
          "logIndex": "0x1b",
          "removed": false
        },
        {
          "address": "0x4D73AdB72bC3DD368966edD0f0b2148401A178E2",
          "topics": [
            "0xb0c632f55f1e1b3b2c3d82f41ee4716bb4c00f0f5d84cdafc141581bb8757a4f"
          ],
          "data": "0x0000000000000000000000000000000000000000000000000000000000000040000000000000000000000000000000000000000000000000000000000000000200000000000000000000000000000000000000000000000000000000000000220001000000000000000000000000000000000000000000000000000000000005b8d8000000000000000000000000000000000000000000000000000000000000",
          "blockHash": "0x68dd845872d8d37218c0b046a809d43f8fecc9cb403c220cc7e6c8710f42e8f2",
          "blockNumber": "0x10c17f1",
          "transactionHash": "0x98734502ee204c1e8c6c10e8c0df12c0b0bdd5f4ad9f40a658574b00ead96b18",
          "transactionIndex": "0xb",
          "logIndex": "0x1c",
          "removed": false
        },
        {
          "address": "0x5a54fe5234E811466D5366846283323c954310B2",
          "topics": [
            "0x4e41ee13e03cd5e0446487b524fdc48af6acf26c074dacdbdfb6b574b42c8146"
          ],
          "data": "0x000000000000000000000000000000000000000000000000000000000000006e0000000000000000000000000000000000000000000000000000000000000002000000000000000000000000000000000000000000000000000000000000000f000000000000000000000000296f55f8fb28e498b858d0bcda06d955b2cb3f9700000000000000000000000000000000000000000000000000004d8a0d105600",
          "blockHash": "0x68dd845872d8d37218c0b046a809d43f8fecc9cb403c220cc7e6c8710f42e8f2",
          "blockNumber": "0x10c17f1",
          "transactionHash": "0x98734502ee204c1e8c6c10e8c0df12c0b0bdd5f4ad9f40a658574b00ead96b18",
          "transactionIndex": "0xb",
          "logIndex": "0x1d",
          "removed": false
        },
        {
          "address": "0x4D73AdB72bC3DD368966edD0f0b2148401A178E2",
          "topics": [
            "0xe9bded5f24a4168e4f3bf44e00298c993b22376aad8c58c7dda9718a54cbea82"
          ],
          "data": "0x000000000000000000000000000000000000000000000000000000000000002000000000000000000000000000000000000000000000000000000000000002b40000000000014a9e0065296f55f8fb28e498b858d0bcda06d955b2cb3f97006e352d8275aae3e0c2404d9f68f6cee084b5beb3dd0000000000000000000000000000000000000000000000000000000000000001000000000000000000000000000000000000000000000000000000000000000d000000000000000000000000000000000000000000000000000000000000000d0000000000000000000000000000000000000000000000000000000000030d40000000000000000000000000000000000000000000000000000000000000000000000000000000000000000000000000000000000000007fc43a430f84e2c7490000000000000000000000000000000000000000000000000011c0beb9f1500000000000000000000000000000000000000000000000000000000022ecb25c000000000000000000000000000000000000000000000000000000000000000000000000000000000000000000000000000000000000000000000000000000000000000000000000000000000000000000000000000000000000000297913cd4000000000000000000000000000000000000000000000000000011c37937e0800000000000000000000000000000000000000000000000000000000000000001c000000000000000000000000000000000000000000000000000000000000002000000000000000000000000000000000000000000000000000000000000000004307830300000000000000000000000000000000000000000000000000000000000000000000000000000000000000000000000000000000000000000000000600000000000000000000000002d244ed7d17ae47886f7f13f53e74b6b0bc16fdc0000000000000000000000000000000000000000000000000000000064a20f800000000000000000000000007bb5ee84ba30a8d4cff259073fbacc6b702bce9d000000000000000000000000",
          "blockHash": "0x68dd845872d8d37218c0b046a809d43f8fecc9cb403c220cc7e6c8710f42e8f2",
          "blockNumber": "0x10c17f1",
          "transactionHash": "0x98734502ee204c1e8c6c10e8c0df12c0b0bdd5f4ad9f40a658574b00ead96b18",
          "transactionIndex": "0xb",
          "logIndex": "0x1e",
          "removed": false
        },
        {
          "address": "0x296F55F8Fb28E498B858d0BcDA06D955B2Cb3f97",
          "topics": [
            "0x8d3ee0df6a4b7e82a7f20a763f1c6826e6176323e655af64f32318827d2112d4"
          ],
          "data": "0x00000000000000000000000000000000000000000000000000000000000000010000000000000000000000000000000000000000000000000000000000014a9e",
          "blockHash": "0x68dd845872d8d37218c0b046a809d43f8fecc9cb403c220cc7e6c8710f42e8f2",
          "blockNumber": "0x10c17f1",
          "transactionHash": "0x98734502ee204c1e8c6c10e8c0df12c0b0bdd5f4ad9f40a658574b00ead96b18",
          "transactionIndex": "0xb",
          "logIndex": "0x1f",
          "removed": false
        }
      ],
      "status": "0x1",
      "logsBloom": "0x00000040000000000008020000000000000040000000000020000000000000100000000040000200000000000018000000200000000200000000000000600100004000000000000000000008000000080000000000000000000000008000000000040000000000010000200000000000c00000000000400000000010800000000000000400010000000000000000000000000001280000000000008000020000020000004000020000000004000000000020000000200100000000000000000000001002000008000400000000000200001000400000000000000000000000001010800000000000000100000000000000000000000000400000002008000800",
      "type": "0x2",
      "effectiveGasPrice": "0x38c6b0ce8"
    }
  ],
  "libraries": [],
  "pending": [],
  "returns": {},
  "timestamp": 1687857605,
  "chain": 1,
  "multi": false,
  "commit": "32bb027"
}