{
  "transactions": [
    {
      "hash": "0xc985cdc49f04235fe53683cf31a36dd52697f0030e7cdfcdfc751c194792a07a",
      "transactionType": "CALL",
      "contractName": "ZapFrom",
      "contractAddress": "0x71dcb9Ad1ddf4476B2F550Bc2a8544bD350CE0DE",
      "function": "bridge(uint256,address,uint16,uint16,bytes)",
      "arguments": [
        "5000000000000000",
        "0x0000000000000000000000000000000000000000",
        "13",
        "13",
        "0x0000000000000000000000002d244ed7d17ae47886f7f13f53e74b6b0bc16fdc0000000000000000000000000000000000000000000000000000000064a20f800000000000000000000000007bb5ee84ba30a8d4cff259073fbacc6b702bce9d"
      ],
      "transaction": {
        "type": "0x02",
        "from": "0x2d244ed7d17ae47886f7f13f53e74b6b0bc16fdc",
        "to": "0x71dcb9ad1ddf4476b2f550bc2a8544bd350ce0de",
        "gas": "0x8ab5b",
        "value": "0x2386f26fc10000",
        "data": "0xa3b146960000000000000000000000000000000000000000000000000011c37937e080000000000000000000000000000000000000000000000000000000000000000000000000000000000000000000000000000000000000000000000000000000000d000000000000000000000000000000000000000000000000000000000000000d00000000000000000000000000000000000000000000000000000000000000a000000000000000000000000000000000000000000000000000000000000000600000000000000000000000002d244ed7d17ae47886f7f13f53e74b6b0bc16fdc0000000000000000000000000000000000000000000000000000000064a20f800000000000000000000000007bb5ee84ba30a8d4cff259073fbacc6b702bce9d",
        "nonce": "0x3",
        "accessList": []
      },
      "additionalContracts": [],
      "isFixedGasLimit": false
    }
  ],
  "receipts": [],
  "libraries": [],
  "pending": [
    "0xc985cdc49f04235fe53683cf31a36dd52697f0030e7cdfcdfc751c194792a07a"
  ],
  "returns": {},
  "timestamp": 1687861161,
  "chain": 1,
  "multi": false,
  "commit": "32bb027"
}